{"abi":[{"type":"constructor","inputs":[{"name":"_engine","type":"address","internalType":"address"}],"stateMutability":"nonpayable"},{"type":"function","name":"approve","inputs":[{"name":"to","type":"address","internalType":"address"},{"name":"tokenId","type":"uint256","internalType":"uint256"}],"outputs":[],"stateMutability":"nonpayable"},{"type":"function","name":"balanceOf","inputs":[{"name":"owner","type":"address","internalType":"address"}],"outputs":[{"name":"","type":"uint256","internalType":"uint256"}],"stateMutability":"view"},{"type":"function","name":"engine","inputs":[],"outputs":[{"name":"","type":"address","internalType":"address"}],"stateMutability":"view"},{"type":"function","name":"getApproved","inputs":[{"name":"tokenId","type":"uint256","internalType":"uint256"}],"outputs":[{"name":"","type":"address","internalType":"address"}],"stateMutability":"view"},{"type":"function","name":"highlights","inputs":[{"name":"","type":"uint256","internalType":"uint256"}],"outputs":[{"name":"arenaId","type":"uint40","internalType":"uint40"},{"name":"startBlock","type":"uint40","internalType":"uint40"},{"name":"endBlock","type":"uint40","internalType":"uint40"},{"name":"score","type":"uint16","internalType":"uint16"},{"name":"streak","type":"uint16","internalType":"uint16"},{"name":"player","type":"address","internalType":"address"}],"stateMutability":"view"},{"type":"function","name":"isApprovedForAll","inputs":[{"name":"owner","type":"address","internalType":"address"},{"name":"operator","type":"address","internalType":"address"}],"outputs":[{"name":"","type":"bool","internalType":"bool"}],"stateMutability":"view"},{"type":"function","name":"mintHighlight","inputs":[{"name":"player","type":"address","internalType":"address"},{"name":"arenaId","type":"uint40","internalType":"uint40"},{"name":"startBlock","type":"uint40","internalType":"uint40"},{"name":"endBlock","type":"uint40","internalType":"uint40"},{"name":"score","type":"uint16","internalType":"uint16"},{"name":"streak","type":"uint16","internalType":"uint16"}],"outputs":[{"name":"tokenId","type":"uint256","internalType":"uint256"}],"stateMutability":"nonpayable"},{"type":"function","name":"name","inputs":[],"outputs":[{"name":"","type":"string","internalType":"string"}],"stateMutability":"view"},{"type":"function","name":"nextTokenId","inputs":[],"outputs":[{"name":"","type":"uint256","internalType":"uint256"}],"stateMutability":"view"},{"type":"function","name":"owner","inputs":[],"outputs":[{"name":"","type":"address","internalType":"address"}],"stateMutability":"view"},{"type":"function","name":"ownerOf","inputs":[{"name":"tokenId","type":"uint256","internalType":"uint256"}],"outputs":[{"name":"","type":"address","internalType":"address"}],"stateMutability":"view"},{"type":"function","name":"safeTransferFrom","inputs":[{"name":"from","type":"address","internalType":"address"},{"name":"to","type":"address","internalType":"address"},{"name":"tokenId","type":"uint256","internalType":"uint256"}],"outputs":[],"stateMutability":"nonpayable"},{"type":"function","name":"safeTransferFrom","inputs":[{"name":"from","type":"address","internalType":"address"},{"name":"to","type":"address","internalType":"address"},{"name":"tokenId","type":"uint256","internalType":"uint256"},{"name":"data","type":"bytes","internalType":"bytes"}],"outputs":[],"stateMutability":"nonpayable"},{"type":"function","name":"setApprovalForAll","inputs":[{"name":"operator","type":"address","internalType":"address"},{"name":"approved","type":"bool","internalType":"bool"}],"outputs":[],"stateMutability":"nonpayable"},{"type":"function","name":"setEngine","inputs":[{"name":"_engine","type":"address","internalType":"address"}],"outputs":[],"stateMutability":"nonpayable"},{"type":"function","name":"supportsInterface","inputs":[{"name":"interfaceId","type":"bytes4","internalType":"bytes4"}],"outputs":[{"name":"","type":"bool","internalType":"bool"}],"stateMutability":"view"},{"type":"function","name":"symbol","inputs":[],"outputs":[{"name":"","type":"string","internalType":"string"}],"stateMutability":"view"},{"type":"function","name":"tokenURI","inputs":[{"name":"tokenId","type":"uint256","internalType":"uint256"}],"outputs":[{"name":"","type":"string","internalType":"string"}],"stateMutability":"view"},{"type":"function","name":"transferFrom","inputs":[{"name":"from","type":"address","internalType":"address"},{"name":"to","type":"address","internalType":"address"},{"name":"tokenId","type":"uint256","internalType":"uint256"}],"outputs":[],"stateMutability":"nonpayable"},{"type":"event","name":"Approval","inputs":[{"name":"owner","type":"address","indexed":true,"internalType":"address"},{"name":"approved","type":"address","indexed":true,"internalType":"address"},{"name":"tokenId","type":"uint256","indexed":true,"internalType":"uint256"}],"anonymous":false},{"type":"event","name":"ApprovalForAll","inputs":[{"name":"owner","type":"address","indexed":true,"internalType":"address"},{"name":"operator","type":"address","indexed":true,"internalType":"address"},{"name":"approved","type":"bool","indexed":false,"internalType":"bool"}],"anonymous":false},{"type":"event","name":"Transfer","inputs":[{"name":"from","type":"address","indexed":true,"internalType":"address"},{"name":"to","type":"address","indexed":true,"internalType":"address"},{"name":"tokenId","type":"uint256","indexed":true,"internalType":"uint256"}],"anonymous":false},{"type":"error","name":"ERC721IncorrectOwner","inputs":[{"name":"sender","type":"address","internalType":"address"},{"name":"tokenId","type":"uint256","internalType":"uint256"},{"name":"owner","type":"address","internalType":"address"}]},{"type":"error","name":"ERC721InsufficientApproval","inputs":[{"name":"operator","type":"address","internalType":"address"},{"name":"tokenId","type":"uint256","internalType":"uint256"}]},{"type":"error","name":"ERC721InvalidApprover","inputs":[{"name":"approver","type":"address","internalType":"address"}]},{"type":"error","name":"ERC721InvalidOperator","inputs":[{"name":"operator","type":"address","internalType":"address"}]},{"type":"error","name":"ERC721InvalidOwner","inputs":[{"name":"owner","type":"address","internalType":"address"}]},{"type":"error","name":"ERC721InvalidReceiver","inputs":[{"name":"receiver","type":"address","internalType":"address"}]},{"type":"error","name":"ERC721InvalidSender","inputs":[{"name":"sender","type":"address","internalType":"address"}]},{"type":"error","name":"ERC721NonexistentToken","inputs":[{"name":"tokenId","type":"uint256","internalType":"uint256"}]},{"type":"error","name":"NotEngine","inputs":[]},{"type":"error","name":"NotOwner","inputs":[]}],"bytecode":{"object":"0x60806040523461035857611da56020813803918261001c8161035c565b93849283398101031261035857516001600160a01b0381169081900361035857610046604061035c565b90601582527f426c6f636b4172656e6120486967686c69676874730000000000000000000000602083015261007b604061035c565b600381526208482960eb1b602082015282519091906001600160401b03811161026c575f54600181811c9116801561034e575b602082101461024e57601f81116102ec575b506020601f821160011461028b57819293945f92610280575b50508160011b915f199060031b1c1916175f555b81516001600160401b03811161026c57600154600181811c91168015610262575b602082101461024e57601f81116101eb575b50602092601f821160011461018a57928192935f9261017f575b50508160011b915f199060031b1c1916176001555b600780546001600160a01b03199081169290921790556008805490911633179055604051611a2390816103828239f35b015190505f8061013a565b601f1982169360015f52805f20915f5b8681106101d357508360019596106101bb575b505050811b0160015561014f565b01515f1960f88460031b161c191690555f80806101ad565b9192602060018192868501518155019401920161019a565b60015f527fb10e2d527612073b26eecdfd717e6a320cf44b4afac2b0732d9fcbe2b7fa0cf6601f830160051c81019160208410610244575b601f0160051c01905b8181106102395750610120565b5f815560010161022c565b9091508190610223565b634e487b7160e01b5f52602260045260245ffd5b90607f169061010e565b634e487b7160e01b5f52604160045260245ffd5b015190505f806100d9565b601f198216905f8052805f20915f5b8181106102d4575095836001959697106102bc575b505050811b015f556100ed565b01515f1960f88460031b161c191690555f80806102af565b9192602060018192868b01518155019401920161029a565b5f80527f290decd9548b62a8d60345a988386fc84ba6bc95484008f6362f93160ef3e563601f830160051c81019160208410610344575b601f0160051c01905b81811061033957506100c0565b5f815560010161032c565b9091508190610323565b90607f16906100ae565b5f80fd5b6040519190601f01601f191682016001600160401b0381118382101761026c5760405256fe6080806040526004361015610012575f80fd5b5f3560e01c90816301ffc9a7146112cc5750806306fdde0314611214578063081812fc146111d8578063095ea7b3146110ee5780630e830e491461109257806323b872dd1461107b578063280e605514610df8578063299d226414610d7c57806342842e0e14610d535780636352211e14610d2357806370a0823114610cd257806375794a3c14610cb55780638da5cb5b14610c8d57806395d89b4114610b85578063a22cb46514610aea578063b88d4fde14610a60578063c87b56dd14610170578063c9d4623f146101485763e985e9c5146100ed575f80fd5b346101445760403660031901126101445761010661135b565b61010e611371565b9060018060a01b03165f52600560205260405f209060018060a01b03165f52602052602060ff60405f2054166040519015158152f35b5f80fd5b34610144575f366003190112610144576007546040516001600160a01b039091168152602090f35b346101445760203660031901126101445760043561018d816116f7565b50805f52600960205260405f2090604051916101a8836113c1565b805464ffffffffff81168452602084018160281c64ffffffffff16815260408501918060501c64ffffffffff16835260608601938160781c61ffff168552608087019160881c61ffff168252600160a01b6001900390600101541660a08701526102118561172b565b94865164ffffffffff166102249061172b565b95855161ffff166102349061172b565b835161ffff166102439061172b565b855164ffffffffff166102559061172b565b90875164ffffffffff166102689061172b565b926040519a8b95602087017f3c73766720786d6c6e733d22687474703a2f2f7777772e77332e6f72672f32309052604087017f30302f737667222077696474683d2234303022206865696768743d22343030229052606087017f207374796c653d226261636b67726f756e643a23306130613265223e000000009052607c87017f3c7465787420783d223230302220793d2235302220746578742d616e63686f729052609c87017f3d226d6964646c65222066696c6c3d22236666643730302220666f6e742d7369905260bc87017f7a653d2232342220666f6e742d66616d696c793d226d6f6e6f7370616365223e905260dc870170212627a1a5a0a922a7209e17ba32bc3a1f60791b905260ed87017f3c7465787420783d223230302220793d2239302220746578742d616e63686f72905261010d87017f3d226d6964646c65222066696c6c3d22236666662220666f6e742d73697a653d905261012d87017f2231362220666f6e742d66616d696c793d226d6f6e6f7370616365223e484947905261014d870167484c49474854202360c01b90528051602081920161015589015e661e17ba32bc3a1f60c91b610155918801918201527f3c7265637420783d2234302220793d22313230222077696474683d223332302261015c8201527f206865696768743d22323230222072783d223130222066696c6c3d222331613161017c8201527f61346522207374726f6b653d222366666437303022207374726f6b652d77696461019c820152673a341e911911179f60c11b6101bc8201527f3c7465787420783d2236302220793d22313630222066696c6c3d2223616161226101c48201525f5160206119ce5f395f51905f526101e48201526f6f7370616365223e4172656e613a202360801b610204820152815191829060200161021483015e016101550160bf8101661e17ba32bc3a1f60c91b905260c681017f3c7465787420783d2236302220793d22313930222066696c6c3d222361616122905260e681015f5160206119ce5f395f51905f5290526e037b9b830b1b2911f29b1b7b9329d1608d1b6101068201528151602081930161011583015e0160bf0160568101661e17ba32bc3a1f60c91b9052605d81017f3c7465787420783d2236302220793d22323230222066696c6c3d2223616161229052607d81015f5160206119ce5f395f51905f5290526f037b9b830b1b2911f29ba3932b0b59d160851b609d8201528151602081930160ad83015e0160560160578101661e17ba32bc3a1f60c91b9052605e81017f3c7465787420783d2236302220793d22323530222066696c6c3d2223616161229052607e81015f5160206119ce5f395f51905f5290526f037b9b830b1b2911f213637b1b5b99d160851b609e8201528151602081930160ae83015e0160570160578101602d60f81b905281516020819301605883015e661e17ba32bc3a1f60c91b910160588101919091527f3c7465787420783d223230302220793d223337302220746578742d616e63686f605f8201527f723d226d6964646c65222066696c6c3d22236666643730302220666f6e742d73607f8201527f697a653d2232302220666f6e742d66616d696c793d226d6f6e6f737061636522609f8201526f1f23a7a21026a7a2229e17ba32bc3a1f60811b60bf820152651e17b9bb339f60d11b60cf8201520360b5810187526107499060d501876113f1565b6107529061172b565b9461075c90611898565b955164ffffffffff1661076e9061172b565b935161ffff1661077d9061172b565b905161ffff1661078c9061172b565b915164ffffffffff1661079e9061172b565b925164ffffffffff166107b09061172b565b93604051968796602088017f7b226e616d65223a22426c6f636b4172656e6120486967686c69676874202300905280516020819201603f8a015e8701603f81017f222c226465736372697074696f6e223a22546f7020706c6179657220686967689052605f81017f6c696768742066726f6d20426c6f636b4172656e61222c22696d616765223a229052607f81017f646174613a696d6167652f7376672b786d6c3b6261736536342c000000000000905281516020819301609983015e01603f01605a81017f222c2261747472696275746573223a5b7b2274726169745f74797065223a224190526d3932b7309116113b30b63ab2911d60911b607a82015281516020819301608883015e01605a01602e81017f7d2c7b2274726169745f74797065223a2253636f7265222c2276616c7565223a905281516020819301604e83015e01602e01602081017f7d2c7b2274726169745f74797065223a2253747265616b222c2276616c756522905260408101601d60f91b905281516020819301604183015e01602001602181017f7d2c7b2274726169745f74797065223a22537461727420426c6f636b222c227690526530b63ab2911d60d11b604182015281516020819301604783015e01602101602681017f7d2c7b2274726169745f74797065223a22456e6420426c6f636b222c2276616c9052633ab2911d60e11b604682015281516020819301604a83015e0160260160248101627d5d7d60e81b905203602401601c19810182526003016109e790826113f1565b6109f090611898565b6040518091602082017f646174613a6170706c69636174696f6e2f6a736f6e3b6261736536342c000000905280516020819201603d84015e8101603d81015f905203603d01601f1981018252610a4690826113f1565b60405180916020825260208201610a5c91611337565b0390f35b3461014457608036600319011261014457610a7961135b565b610a81611371565b6064359167ffffffffffffffff8311610144573660238401121561014457826004013591610aae83611413565b92610abc60405194856113f1565b8084523660248287010111610144576020815f926024610ae898018388013785010152604435916115b7565b005b3461014457604036600319011261014457610b0361135b565b60243590811515809203610144576001600160a01b0316908115610b7257335f52600560205260405f20825f5260205260405f2060ff1981541660ff83161790556040519081527f17307eab39ab6107e8899845ad3d59bd9653f200f220920489ca2b5937696c3160203392a3005b50630b61174360e31b5f5260045260245ffd5b34610144575f366003190112610144576040515f6001548060011c90600181168015610c83575b602083108114610c6f57828552908115610c4b5750600114610bed575b610a5c83610bd9818503826113f1565b604051918291602083526020830190611337565b91905060015f527fb10e2d527612073b26eecdfd717e6a320cf44b4afac2b0732d9fcbe2b7fa0cf6915f905b808210610c3157509091508101602001610bd9610bc9565b919260018160209254838588010152019101909291610c19565b60ff191660208086019190915291151560051b84019091019150610bd99050610bc9565b634e487b7160e01b5f52602260045260245ffd5b91607f1691610bac565b34610144575f366003190112610144576008546040516001600160a01b039091168152602090f35b34610144575f366003190112610144576020600654604051908152f35b34610144576020366003190112610144576001600160a01b03610cf361135b565b168015610d10575f526003602052602060405f2054604051908152f35b6322718ad960e21b5f525f60045260245ffd5b34610144576020366003190112610144576020610d416004356116f7565b6040516001600160a01b039091168152f35b3461014457610ae8610d6436611387565b9060405192610d746020856113f1565b5f84526115b7565b34610144576020366003190112610144576004355f52600960205260c060405f208054906001808060a01b039101541661ffff6040519264ffffffffff8116845264ffffffffff8160281c16602085015264ffffffffff8160501c166040850152818160781c16606085015260881c16608083015260a0820152f35b346101445760c036600319011261014457610e1161135b565b6024359064ffffffffff8216809203610144576044359164ffffffffff8316809303610144576064359164ffffffffff8316809303610144576084359061ffff82168092036101445760a4359461ffff8616809603610144576007546001600160a01b0316330361106c57600654955f1987146110585760019384880160065560405195610e9e876113c1565b86526020860192835260408601968752606086019081526080860191825260a0860193858060a01b031696878552885f52600960205264ffffffffff60405f209751169069ffffffffff00000000008854955160281b169064ffffffffff60501b905160501b169261ffff60781b905160781b169361ffff60881b905160881b169461ffff60881b199261ffff60781b19916effffffffffffffffffffffffffffff1916171617161717178355818060a01b0390511691019060018060a01b03166001600160601b0360a01b8254161790558015611045575f828152600260205260409020546001600160a01b031680151591839083611012575b805f52600360205260405f2060018154019055815f52600260205260405f20816001600160601b0360a01b825416179055827fddf252ad1be2c89b69c2b068fc378daa952ba7f163c4a11628f55a4df523b3ef5f80a450610fff57602090604051908152f35b6339e3563760e11b5f525f60045260245ffd5b5f82815260046020526040902080546001600160a01b0319169055825f52600360205260405f205f198154019055610f99565b633250574960e11b5f525f60045260245ffd5b634e487b7160e01b5f52601160045260245ffd5b63027da19960e41b5f5260045ffd5b3461014457610ae861108c36611387565b9161142f565b34610144576020366003190112610144576110ab61135b565b6008546001600160a01b031633036110df57600780546001600160a01b0319166001600160a01b0392909216919091179055005b6330cd747160e01b5f5260045ffd5b346101445760403660031901126101445761110761135b565b602435611113816116f7565b331515806111c5575b80611198575b6111855781906001600160a01b0384811691167f8c5be1e5ebec7d5bd14f71427d1e84f3dd0314c0f7b2291e5b200ac8c7c3b9255f80a45f90815260046020526040902080546001600160a01b0319166001600160a01b03909216919091179055005b63a9fbf51f60e01b5f523360045260245ffd5b506001600160a01b0381165f90815260056020908152604080832033845290915290205460ff1615611122565b506001600160a01b03811633141561111c565b34610144576020366003190112610144576004356111f5816116f7565b505f526004602052602060018060a01b0360405f205416604051908152f35b34610144575f366003190112610144576040515f5f548060011c906001811680156112c2575b602083108114610c6f57828552908115610c4b575060011461126657610a5c83610bd9818503826113f1565b5f8080527f290decd9548b62a8d60345a988386fc84ba6bc95484008f6362f93160ef3e563939250905b8082106112a857509091508101602001610bd9610bc9565b919260018160209254838588010152019101909291611290565b91607f169161123a565b34610144576020366003190112610144576004359063ffffffff60e01b8216809203610144576020916380ac58cd60e01b8114908115611326575b8115611315575b5015158152f35b6301ffc9a760e01b1490508361130e565b635b5e139f60e01b81149150611307565b805180835260209291819084018484015e5f828201840152601f01601f1916010190565b600435906001600160a01b038216820361014457565b602435906001600160a01b038216820361014457565b6060906003190112610144576004356001600160a01b038116810361014457906024356001600160a01b0381168103610144579060443590565b60c0810190811067ffffffffffffffff8211176113dd57604052565b634e487b7160e01b5f52604160045260245ffd5b90601f8019910116810190811067ffffffffffffffff8211176113dd57604052565b67ffffffffffffffff81116113dd57601f01601f191660200190565b6001600160a01b0390911691908215611045575f828152600260205260409020546001600160a01b031692829033151580611522575b50846114ef575b805f52600360205260405f2060018154019055815f52600260205260405f20816001600160601b0360a01b825416179055847fddf252ad1be2c89b69c2b068fc378daa952ba7f163c4a11628f55a4df523b3ef5f80a46001600160a01b03168083036114d757505050565b6364283d7b60e01b5f5260045260245260445260645ffd5b5f82815260046020526040902080546001600160a01b0319169055845f52600360205260405f205f19815401905561146c565b90915080611566575b156115385782905f611465565b828461155057637e27328960e01b5f5260045260245ffd5b63177e802f60e01b5f523360045260245260445ffd5b503384148015611595575b8061152b57505f838152600460205260409020546001600160a01b0316331461152b565b505f84815260056020908152604080832033845290915290205460ff16611571565b92916115c481838661142f565b813b6115d1575b50505050565b604051630a85bd0160e11b81523360048201526001600160a01b039485166024820152604481019190915260806064820152921691906020908290819061161c906084830190611337565b03815f865af15f91816116b2575b5061167f57503d15611678573d61164081611413565b9061164e60405192836113f1565b81523d5f602083013e5b805190816116735782633250574960e11b5f5260045260245ffd5b602001fd5b6060611658565b6001600160e01b03191663757a42ff60e11b016116a057505f8080806115cb565b633250574960e11b5f5260045260245ffd5b9091506020813d6020116116ef575b816116ce602093836113f1565b8101031261014457516001600160e01b03198116810361014457905f61162a565b3d91506116c1565b5f818152600260205260409020546001600160a01b0316908115611719575090565b637e27328960e01b5f5260045260245ffd5b805f9172184f03e93ff9f4daa797ed6e38ed64bf6a1f0160401b821015611875575b806d04ee2d6d415b85acef8100000000600a92101561185a575b662386f26fc10000811015611846575b6305f5e100811015611835575b612710811015611826575b6064811015611818575b101561180d575b600a602160018401936117b285611413565b946117c060405196876113f1565b8086526117cf601f1991611413565b013660208701378401015b5f1901916f181899199a1a9b1b9c1cb0b131b232b360811b8282061a835304801561180857600a90916117da565b505090565b6001909101906117a0565b606460029104930192611799565b6127106004910493019261178f565b6305f5e10060089104930192611784565b662386f26fc1000060109104930192611777565b6d04ee2d6d415b85acef810000000060209104930192611767565b506040915072184f03e93ff9f4daa797ed6e38ed64bf6a1f0160401b810461174d565b908151156119b7578151600281018091116110585760039004600281901b91906001600160fe1b0381160361105857604051917f4142434445464748494a4b4c4d4e4f505152535455565758595a616263646566601f527f6768696a6b6c6d6e6f707172737475767778797a303132333435363738392b2f603f52602083018480518101602081018051915f82525b80891061197b575060209596975090600392915251068060011461196657600214611959575b50808452830101604052565b603d905f1901535f61194d565b50603d90815f1982015360011901535f61194d565b939760036004910198603f8a51818160121c165183538181600c1c16516001840153818160061c16516002840153165160038201530193611927565b90506040516119c76020826113f1565b5f81529056fe20666f6e742d73697a653d2231342220666f6e742d66616d696c793d226d6f6ea2646970667358221220cd34bf77f227ba669ea0e586b64f554c3a8a6f6ae2ec94be8a544f7e5b133d7364736f6c634300081c0033","linkReferences":{}},"methodIdentifiers":{"approve(address,uint256)":"095ea7b3","balanceOf(address)":"70a08231","engine()":"c9d4623f","getApproved(uint256)":"081812fc","highlights(uint256)":"299d2264","isApprovedForAll(address,address)":"e985e9c5","mintHighlight(address,uint40,uint40,uint40,uint16,uint16)":"280e6055","name()":"06fdde03","nextTokenId()":"75794a3c","owner()":"8da5cb5b","ownerOf(uint256)":"6352211e","safeTransferFrom(address,address,uint256)":"42842e0e","safeTransferFrom(address,address,uint256,bytes)":"b88d4fde","setApprovalForAll(address,bool)":"a22cb465","setEngine(address)":"0e830e49","supportsInterface(bytes4)":"01ffc9a7","symbol()":"95d89b41","tokenURI(uint256)":"c87b56dd","transferFrom(address,address,uint256)":"23b872dd"},"id":38}